:1000000000800120E5280000E1280000E128000030
:1000100000000000000000000000000000000000E0
:10002000000000000000000000000000E1280000C7
:100030000000000000000000E1280000E1280000AE
:10004000E1280000E1280000E1280000E12800008C
:10005000E1280000E1280000E1280000E12800007C
:10006000E1280000E1280000E1280000E12800006C
:10007000E1280000E1280000E1280000E12800005C
:1000800040F2680040F26803C2F20000C2F20003CE
:1000900010B5834205D040F20003C0F2000303B163
:1000A000984710BD40F2680040F26803C2F20000B9
:1000B000C2F200031B1A9A10D90F8918491010B503
:1000C00029B140F20003C0F2000303B1984710BD0C
:1000D00010B540F26804C2F20004237873B9FFF748
:1000E000CFFF40F20003C0F200032BB142F6241010
:1000F000C0F2000000E000BF0123237010BDC04625
:1001000040F20003C0F2000310B54BB140F26C01A5
:1001100042F62410C2F20001C0F2000000E000BF6D
:10012000FFF7C0FF10BDC046D0400B00D1409C4639
:10013000203AD340184352426346934018437047D5
:10014000F0B54FF6FF750400CE462C4047461540EB
:100150000E002900994680B5130C0700000C61437E
:100160004543584363430C0C5B19E4188C46A54285
:1001700003D980235B0298464044230C61461B1838
:100180004FF6FF70084049465643794324048919C5
:100190002018C918C0BCB946B046F0BD70B542F6CB
:1001A000B43342F6B435C0F20003C0F200055E1B62
:1001B000B610AB4205D0002408CD01349847A642C2
:1001C000FAD802F0AFFB42F6B43542F6B833C0F2CB
:1001D0000005C0F200035E1BB610AB4205D0002440
:1001E00008CD01349847A642FAD870BDF0B5830710
:1001F00047D0541E002A43D003000325CEB201E0AD
:10020000013C3DD301335A1E16702B42F8D1032C0A
:100210002FD9FF220A401502AD182A04AD180F2C61
:1002200032D92700103F3F093E01B4461E001A0094
:1002300010366644156055609560D5601032964260
:10024000F8D101373F010C22DB190F27224027404C
:100250003C0072B13E1FB608B400A4461A001C1D33
:10026000644420C2A242FCD103240136B6009B198B
:100270003C402CB1C9B21C19197001339C42FBD10E
:10028000F0BD03001400C2E72700E3E7F0B5050066
:100290000F2A31D903273E000D430C0003002E40E6
:1002A0002F4233D11500103D2D09AC462F013F18C8
:1002B00065685D60A5689D60E568DD60256810344F
:1002C0001D601D001033BD42F2D165460F230C2482
:1002D00001352D01491913404519144219D0043B29
:1002E0009B0801339B008C59AC5104369E42FAD1D5
:1002F0000323AD1989191A40561E32B10023CC5C74
:100300001A00EC5401339642F9D1F0BD0500561E97
:10031000F4E71A00F0E7C0460EB400B582B003ABB4
:1003200004CB8168019300F04FF802B008BC03B021
:100330001847C0460FB440F2000100B5C2F20001F8
:1003400083B004AB086804CB8168019300F03CF8EB
:1003500003B008BC04B01847936810B5013B936024
:10036000002B04DA9469A34207DB0A2905D013683D
:10037000581C10600800197010BD00F07DF9FBE7F3
:10038000F8B506000F006BB11400D51802E0013477
:10039000AC4207D03A0030002178FFF7DDFF431C64
:1003A000F5D1F8BD0020FCE710B5140092680023D9
:1003B0002AB1220000F0B6F900220300A260002258
:1003C0001800626010BDC046F0B557464E4645461F
:1003D000DE46E0B58146884617001C009DB018B186
:1003E000036A002B00D136E143469B891B0700D4EA
:1003F000A3E043461B69002B00D19EE0002304AD1F
:100400006B6120336B7610333E00AB764346C846B3
:10041000994633780394002B00D18CE0340004E03B
:1004200063780134002B00D191E0252BF8D1A31B78
:100430009B46B44200D08EE02378002B7BD0661C14
:10044000012400236442002204930594002342F611
:100450005C3B0692079300234332C0F2000B012459
:100460005F46AB54AB6506E02200C01B82401E0015
:1004700029680A432A6042F65C3005223178C0F2CE
:10048000000001F05FF9731C0028EDD12A681F00FD
:10049000D10602D5432120306854110702D54321EB
:1004A0002B20685431782A2900D074E0039B191D51
:1004B0001B680391002B00DAA5E0EB6071782E2910
:1004C00000D180E042F66434C0F200040322200030
:1004D00001F038F930B14023001B83402A6801370E
:1004E00013432B6042F6683039780622C0F20000D0
:1004F0007E1C297601F026F9002800D189E040F21F
:100500000003C0F20003002B6ED003AB009340F257
:1005100081334A4629004046C0F2000300E000BF94
:1005200082465346013306D06B6953446B6133787E
:10053000002B00D072E7C84621E04146484600F053
:1005400003FE002800D159E7012040421CE0A31B14
:100550009B46B442EFD04B463200A14646460027A8
:1005600090461C0002E00137BB4544D943462200B7
:100570003000D95DFFF7F0FE0130F4D1A0464346CC
:100580009B895B06E0D468691DB0F0BCBB46B246EF
:10059000A946A046F0BD080030383700092800D928
:1005A0008DE7EA68140000E00133A20012191978FF
:1005B00052001418080030380928F5D91F00EC60E3
:1005C0002E2900D07EE779782A292FD1039BB81CE9
:1005D0001A1D1B6803926B60002B02DA01235B4239
:1005E0006B60B97807006DE70722039B07339343DD
:1005F0000833039398E723004C4699466B69B0464D
:100600005B446B6118E75B42EB6002231A432A608C
:1006100054E703AB009340F281334A462900404639
:10062000C0F2000300F0D0FE82467AE70800002303
:10063000303801376B60092800D943E71A0093006E
:100640009B1879785B001A180800303801370928A0
:10065000F5D96A6036E700F0F9FAC5E6130040F212
:10066000000210B50400C2F2000210680A00210066
:10067000FFF7AAFE10BDC046F8B505000E00140035
:1006800010B1036A002B3ED0A369A360A3891B07A6
:100690001AD52369C3B1FF22F7B2616916402268F7
:1006A000D31A99421EDD0133A1680139A160511CA2
:1006B0002160177062699A421CD0A389DB0701D5BB
:1006C0000A2E17D03000F8BD2100280000F03CFDB4
:1006D000B0B9FF222369F7B2616916402268D31AC4
:1006E0009942E0DC2100280000F072FB40B90123B0
:1006F0002268D9E72100280000F06AFB0028E1D039
:1007000001267642DEE700F0A1FABDE70A0040F2DA
:100710000001030010B5C2F2000108681900FFF7DC
:10072000ABFF10BDF0B54E46DE4657464546E0B538
:10073000936883B00C0091460190002B65D00C2388
:10074000C95E0B0769D52369002B66D04B461F682D
:100750008B0726D5A36A4FF60048002600259A4647
:10076000216AC7F6FF78C5B12B00454503D94FF67E
:100770000043C7F6FF7332000198D04700285ADDC6
:100780004B464A469B6836181B1A2D1A9360E3B3F2
:10079000A36A216A9A46002DE6D13E687D68083733
:1007A000E1E7CB0764D540F2000843460020B84695
:1007B00040F2000A00261F00002E44D000284BD033
:1007C0003B00B3469E4200D99B4620682269A5683B
:1007D0006369904203D9ED18AB4500DDFEE05B454F
:1007E00000DDEEE0A56A5246216A0198A847051E81
:1007F00021DD7F1B0120C7B14B464A469B68AA44B6
:100800005B1B761B9360002BD6D1002003B0F0BC9D
:10081000BB46B246A946A046F0BD2100019800F0B3
:1008200093FC68B90C23E15E90E72100019800F089
:10083000CFFA0028E0D00C22A35E40221343A3810C
:1008400001204042E2E7434640F2080C5E68E04483
:10085000002EF8D01B689A4632000A21504600F05C
:1008600071FF002800D1DCE053460130C71AA7E72A
:1008700040F2000A40F20008504640F2002B454684
:100880002368A268009018009046002D5CD05E4658
:100890000E425ED09246AA4200D98FE040F28042DA
:1008A0000A4230D0626920691E1A53009B18DA0F81
:1008B000D3185B109A46731C5B195246534501D9F5
:1008C0009A461A00490500D497E01100019800F0FB
:1008D000E3FA80460300002800D1A5E03200216938
:1008E000FFF7D4FCA389534A134080221343A3810A
:1008F0003000434652464044AA46A8462361931B13
:1009000020606261A3605246009900F0A5FB434657
:10091000A8460025A268D21A2368A2605344236027
:10092000009B4246434400934B469B689B1A4A46B1
:100930009360002B00D168E70C23E15EA268236876
:1009400090461800002DA2D138687D6800900837C5
:1009500099E72169994218D36169A94215D8802283
:100960002B001206954200D3334B93FBF1F3A26A9E
:100970004B439046216A009A0198C047002800DC4A
:1009800059E780464346ED1ACAE79046AA4200D985
:10099000A84642461800009900F05EFB4346A26854
:1009A000D21A2368A26043442360002AEAD12100BE
:1009B000019800F00DFA0028E4D03CE7A846AA46CA
:1009C000A1E75A46514600F047FB5A46A3685D46E8
:1009D0009B1AA36023685B4423600AE751462A0000
:1009E00000F03AFB236821005B190198236000F0B6
:1009F000EFF9002800D1FCE61DE70100019800F0A6
:100A000005FC8046002800D072E7019D216928007E
:100A100000F0C8FA8022A3899343743A1BB22A607B
:100A20000BE7731C1F00CCE6019A0C3313600C22F9
:100A3000A35E02E77FFBFFFFFFFFFF7F0020704701
:100A400040F2500240F6D15140F2040010B5C2F21B
:100A50000002C0F20001C2F2000000F053FB10BD22
:100A600040F288034168C2F2000310B504009942C5
:100A700001D000F0ADF9A168064B994202D02000E8
:100A800000F0A6F9E168044B994202D0200000F082
:100A90009FF910BDF0000020580100200020704791
:100AA000F8B540F2880440F2840340F64122CE4675
:100AB0004746C2F20004C2F20003C0F20002200066
:100AC00041F60909002580B51A600423C0F2000927
:100AD0000822002141F635085C3025606560A5607C
:100AE000656625616561A561E360FFF77FFB4B46A5
:100AF000C0F2000863624346A362CC23E550C33BC7
:100B0000C0F2010341F6750741F6A50620006367B0
:100B10008023C0F20007C0F2000608220021C43082
:100B2000E550E7622663A566E5662567A567E56784
:100B30002462FFF75BFB220088236832E2504A46BA
:100B40000433E25042460433E250DC220433E750DF
:100B50000433E6503833E5500433E5500433E550B0
:100B60005C33E550233BFF3BC0F20203A35020005F
:100B7000E0232D30E5500433E55000210433D43A0E
:100B8000FF30E550FFF732FB2200F023D032E25075
:100B90004A460433E25042460433E2500433E750FD
:100BA0000433E650C0BCB946B046F8BDF8B540F2D3
:100BB0008403C2F200031B680700002B3DD040F203
:100BC0005006C2F200067368B468013B03D51BE00F
:100BD0006834013B18D30C22A55E002DF8D120000B
:100BE000194B08220021E36065662560A5606560F9
:100BF00025616561A5615C30FFF7F8FA6563A5635F
:100C0000A564E5642000F8BD35680DB12E00DAE773
:100C100040F2AC11380000F03FF9040080B1042329
:100C20000560250043600C3040F2A0120021A06056
:100C3000FFF7DCFA34602E00C5E7FFF731FFBEE7AF
:100C40000C2330603B60DDE70100FFFF036A10B555
:100C500003B110BD40F66123C0F20003036240F20D
:100C60008403C2F200031B68002BF2D1FFF718FFC8
:100C7000EFE7C0467047C0467047C04640F250029A
:100C800040F63D2110B50020C2F20002C0F2000182
:100C900000F038FA10BDC04640F2500240F69D21E7
:100CA00010B50020C2F20002C0F2000100F02AFAE2
:100CB00010BDC046F0B5C64600B50C228B5E0700DD
:100CC0000C001A0739D44A68002A59DDE66A86B34F
:100CD00000223D68216A3A60DA0455D400220123DB
:100CE0003800B0470200431C65D00C21635EE66A01
:100CF000216A5B0705D56368D21A636B0BB1236C5D
:100D0000D21A00233800B047431C3FD00023636051
:100D100023692360A389DB044BD4616B3D6041B13F
:100D200023004433994202D0380000F03BF90023FD
:100D30006363002080BCB846F0BD0E69002EF8D079
:100D40000D680022AD1B0E609B0700D14A69A260AE
:100D5000002D04DCEDE736182D1A002DE9DDA36A1D
:100D60003200984638002B00216AC0470028F2DC88
:100D70004022A38913431BB20120A3814042D9E73B
:100D80000A6C002AA2DCD4E7626DB2E739680C2253
:100D9000A35E1D2918D80122C2F24002CA40D20720
:100DA00012D50022626022692260DB04B5D50029D9
:100DB000B3D16065B1E73B68002B96D01D2B01D005
:100DC000162BD5D13D60B4E740221343D4E7C0468B
:100DD0000B6970B505000C002BB108B1036A4BB16B
:100DE0000C22A35E0BB9002070BD21002800FFF784
:100DF00061FFF9E7FFF72AFFF2E7C04670B504008C
:100E0000B8B140F20003C2F200031D6803692BB1C0
:100E10000DB12B6A4BB10C22A35E0BB9002070BD43
:100E200021002800FFF746FFF9E72800FFF70EFF33
:100E3000F1E740F2500240F6D15140F20400C2F214
:100E40000002C0F20001C2F2000000F05BF9E6E728
:100E500070B540F2C014C2F20004236805000E0011
:100E6000ABB13100280000F0BBFC431C0CD00323C5
:100E7000C41C9C43A04205D0211A280000F0B0FCFD
:100E8000013001D0200070BD01246442FAE7002146
:100E900000F0A6FC2060E4E7F8B50323CE46474601
:100EA000CD1C9D430835060080B50C2D1FD20C25A6
:100EB000A9421ED840F2C0173000C2F2000700F06D
:100EC000B7FB7A68CAB1140003E063682200A3B1DB
:100ED0001C0023685B1BF8D40B2B27D961192560F4
:100EE000944259D051600B6063684B600DE0002D57
:100EF000DEDA0C230020336014E029003000FFF715
:100F0000A7FF0400431C19D00560300000F092FBDD
:100F1000200007220B30231D9043C21A984201D0B3
:100F20001B1AA350C0BCB946B046F8BD63689442D2
:100F300002D05360E9E743467B60E6E77B6898466A
:100F40001BB3444663689846002BFAD123680021FE
:100F500099463000A14400F043FC814515D1236837
:100F60003000ED1A2900FFF773FF01300DD0236820
:100F70007A685B192360536813B9DCE71A005B6871
:100F80009C42FBD100235360BFE70C233000336049
:100F900000F050FB0020C5E779600B6063684B6090
:100FA000B3E7C04670B50500B9B10C1F2368002B2C
:100FB00025DB280000F03CFB40F2C412C2F2000224
:100FC00013682BB1A3420BD92168601883422CD03F
:100FD00028006360146000F02DFB70BDA34210D8A0
:100FE0001A005B68002BF9D1106811188C4218D0D8
:100FF0002CD363605460280000F01CFBEDE7E4187C
:10100000D7E711685018A04214D01FD82168601883
:101010008342EED118685B684118216063605460B8
:10102000E9E723681B181360E5E718685B68411857
:101030002160CDE720680918501811608342DAD189
:1010400018685B68411811605360D4E70C232800CE
:101050002B6000F0EFFAC0E7F0B5884209D98B1891
:10106000984206D2531E1AB1CA5CC254013BFBD24D
:10107000F0BD05000F2A0AD8561E002AF8D000231A
:10108000CC5C1A00EC5401339642F9D1F0E7032707
:101090003E000D430C0003002E402F422DD11500C1
:1010A000103D2D09AC462F013F1825681D6065686D
:1010B0005D60A5689D60E5681034DD601D0010333B
:1010C000BD42F2D165460F230C2401352D0149198B
:1010D00013404519144213D0043B9B0801339B0075
:1010E0008C59AC5104369E42FAD103231A40AD19F3
:1010F0008919561E002AC2D1BAE70500561EBEE75E
:101100001A00B9E7F8B54746CE46884680B581460D
:10111000170000267D68BC68013D0DD4A389012B12
:1011200007D90E22A35E013303D021004846C047F1
:1011300006436834013DF1D23F68002FEAD1300008
:10114000C0BCB946B046F8BD40F20003C2F200038D
:1011500070B5050018680C0010B1026A002A4CD066
:101160000C22A35E1A071BD522691AB3D90707D52B
:101170000021A160616900204942A16142B170BDB6
:101180000021980700D461690020A160002AF6D1EF
:101190001A06F4D540221343A38101204042EEE712
:1011A000DA062DD55A0714D4226908210B43A381EE
:1011B000002ADBD140F2802140F200201940814218
:1011C000D4D02100280000F037FA0C22A35E226957
:1011D000CCE7616B51B122004432914204D0280027
:1011E000FFF7E0FE0C22A35E0022626324229343F9
:1011F0000022626022692260D7E7FFF727FDAFE790
:1012000009222A6040221343A381C6E7F0B5C646EF
:1012100007000E00140000B561B33AB300F048FBBC
:101220008046844203D835004308A34210D32100EE
:101230003800FFF731FE050050B1220044450BD8BD
:1012400031002800FFF722F831003800FFF7AAFE2E
:10125000280080BCB846F0BD310042462800FFF7A8
:1012600015F831003800FFF79DFEF1E7FFF79AFE11
:101270000025EDE71100FFF70FFE0500E8E7C04687
:10128000F8B557464E464546DE46E0B51F000A9B78
:10129000924698460A698B6806000C009A4200DA6A
:1012A0001A0053461A604323E35C13B151460132DE
:1012B0000A602268910661D55346524606201B6893
:1012C0000233136022681100104208D140F2190B5A
:1012D000E16840F20009A344994247DC110043232E
:1012E000E35C5A1E934189060AD53020E118433148
:1012F000087045215A1C615CA218433202331170F8
:101300002200390030004332C04701301DD053461F
:1013100006251B68E1689C462368A26820692B406B
:10132000042B31D0824239DD40F20009121A914477
:1013300000251A3402E001354D452FDA0123220041
:1013400039003000C0470130F5D101204042F0BCE7
:10135000BB46B246A946A046F8BD534640F2010C32
:10136000E5681B68E144ED1A4D4524DD01235A462A
:1013700039003000C0470130EFD1E6E706211142C5
:101380000ED05A1E9341BBE76346C91ACB43DB1705
:101390000B4099468242C9DC0029C9DC0020D6E70F
:1013A000534640F2190B1B68E16840F20009A34460
:1013B0009942DBDC92E743232168E35C5A1E9341A8
:1013C000890692D49CE7C046F0B5DE464E464546B7
:1013D000574683460800E0B50C00097E85B0994663
:1013E00090460E9B4330A1B10A00583AD2B2202A4F
:1013F00048D88E4D9200AA5897461A682168161D43
:1014000065691E6013680F0602D4490600D5E2E044
:101410001D600023070023614B46210000935846BE
:10142000434603AAFFF72CFF01301ED03A00414685
:1014300058462369C847013017D02368E068039EE7
:101440009B071BD5B04219DD40F2190A0025A244C2
:1014500004E0E0680135831BAB420FDD01235246F7
:1014600041465846C8470130F3D10120404205B0FB
:10147000F0BCBB46B246A946A046F0BDB042F6DA83
:101480003000F4E72700422301204237E154432390
:1014900000222061E254BFE7196822680D1D1D601B
:1014A000160602D4560600D59BE009680D00636855
:1014B000002900DA99E042F6703140F20A0CC0F2DD
:1014C000000150E01A68266820CA370602D4760662
:1014D00000D582E01A606F2900D198E042F67031A1
:1014E00040F20A0CC0F2000139E01A682700111D11
:1014F00019604223126801204237E254C7E71A6894
:10150000111D1960176800213800626800F01AF98F
:10151000002800D187E0C01B6060B8E72022216866
:101520000A43226045217825655442F68431C0F291
:1015300000011E6820CE170604D4570602D54FF6C8
:10154000FF773D401E60D30702D520231A43226057
:101550001DB9202223689343236040F2100C4323DB
:101560000022E2546368A360002B18DB0426226883
:10157000B24322609DB90700002B4FD16346082B70
:101580001ED0C01B206147E745225821A15442F6D6
:1015900070312268C0F20001CBE72268C2E76346DF
:1015A0000700B5FBF3F21E005643AE1B8E5D013FF4
:1015B0003E702E0015009E42F3D26346082BE0D108
:1015C0002368DB07DDD5626823699A42D9DC3022C3
:1015D000013F3A70D5E71D801BE74FF6FF76354097
:1015E00078E70023CD5E290061E743212D2666546C
:1015F000A360002B02DB04239A43226042F6703181
:101600000A2340F20A0C6D42C0F20001C8E742F61C
:10161000703140F2080CC0F20001A0E727000B78FF
:1016200042373B70AAE7606831E7C0463C290000BA
:101630007047C0467047C04670B50C23CD5E0600AB
:101640000C0096B0AA0707D5230047332360236117
:101650000123636116B070BD0E23C95E00292BDB28
:101660006A4600F059F9002824DB40F200413000BE
:10167000019DFFF711FC98B38022A38920601343DA
:10168000A38140F2004342F2000263614FF2000383
:1016900020612B409342DDD130000E23E15E00F04B
:1016A0008BF80028D6D00322A38993430122134349
:1016B000A381CFE70C23E55E40F2004C0D4B2D06D5
:1016C000ED171D40654429003000FFF7E5FB38B1F8
:1016D0008022A38920601343A38120616561B9E75B
:1016E0000C22A35E9A05B5D403229343022213432E
:1016F000A381A9E740FCFFFF70B50C001E000E237C
:10170000C95E150096B0002914DB6A4600F004F9A2
:1017100000280FDB4FF2000301991940084B9C464B
:1017200061444B42594140F20043002031602B603C
:1017300016B070BDA38900211B06F4D54023F4E741
:1017400000E0FFFF70B5CCB283070CD0531E72B11E
:10175000032504E00130284206D0013B07D302787C
:10176000A242F7D170BD1300032B02D8D3B90020D9
:10177000F8E7FF2248F280060A401502AD182A0455
:10178000AD18C8F2800603E0043B0430032BEDD90A
:101790004FF6FF610268CFF6FE616A40511891432F
:1017A0003142F1D0C31802E001309842DFD0027814
:1017B000A242F9D1D6E7C04670B540F2C814002362
:1017C0000500C2F200040800236000F063FD431C22
:1017D00000D070BD2368002BFBD02B60F9E7C0461A
:1017E00070B540F2C81400230500C2F200040800DE
:1017F000236000F077FA431C00D070BD2368002BF3
:10180000FBD02B60F9E7C04670B50C000E25495F90
:1018100000F06CF8002803DB636D1B18636570BD76
:10182000A389024A1340A381F9E7C046FFEFFFFFF7
:1018300000207047F8B50C001F000C23C95E05009E
:101840001600CB050AD40A4B320019402800A181AA
:101850000E23E15E3B0000F089F8F8BD0E23E15E47
:101860000022022300F06CF80C23E15EEBE7C04697
:10187000FFEFFFFF70B50C000E25495F00F060F828
:10188000431C07D041F20002A389606513431BB2D9
:10189000A38170BDA389024A13401BB2F8E7C0467A
:1018A000FFEFFFFF10B50E23C95E00F00BF810BD6F
:1018B0000B1F1B68181F002B00DB70470B58C0184C
:1018C000FBE7C04670B540F2C81400230500C2F221
:1018D00000040800236000F0BBF9431C00D070BD79
:1018E0002368002BFBD02B60F9E7C04670B540F2AF
:1018F000C8140500080011001A000023C2F20004F9
:10190000236000F065F8431C00D070BD2368002BF5
:10191000FBD02B60F9E7C04670B540F2C814002335
:101920000500C2F2000408001100236000F046FA2E
:10193000431C00D070BD2368002BFBD02B60F9E75F
:1019400070B540F2C8140500080011001A00002309
:10195000C2F20004236000F0EDF8431C00D070BD1B
:101960002368002BFBD02B60F9E7C04670B540F22E
:10197000C8140500080011001A000023C2F2000478
:10198000236000F0F7F8431C00D070BD2368002BE3
:10199000FBD02B60F9E7C046F0B585B0062401AD59
:1019A000019002910392201C291CABBE041C631CF5
:1019B00002D0200005B0F0BD00F022FD1326050086
:1019C0000027301C391CABBE061C2E60F1E7C04658
:1019D000F0B5C64640F2000300B5C2F200030500B0
:1019E00018680F00160084B008B1036A1BB3132DEA
:1019F00025D840F2DC13ED00C2F20003EB585A1C6C
:101A00001DD001AA90460624019357609660201CC1
:101A10004146ABBE041C631C16D040F2DC13C2F27C
:101A200000039C4665446A68301B12186A6004B063
:101A300080BCB846F0BDFFF709F9132DD9D900F0E5
:101A4000DFFC0923036009E000F0DAFC1325040041
:101A50000026281C311CABBE051C2560012040421D
:101A6000E5E7C046F0B5C64640F2000300B5C2F255
:101A70000003040018680D00160082B010B1036A5C
:101A8000002B4ED0132C50D840F2DC17E400C2F2E9
:101A900000073B595A1C48D0022E30D8012E25D0C1
:101AA000E846022E17D0009343460A265D60301C9C
:101AB0004146ABBE061C731C26D0002E2EDB40F226
:101AC000DC13C2F200039C4664446560280002B047
:101AD00080BCB846F0BD00930A36301C4146ABBE10
:101AE000061C731C10D03B59AD19DCE740F2DC1228
:101AF000C2F20002A2185268E846AD18D3D500F031
:101B00007FFC1623036009E000F07AFC1325040033
:101B10000026281C311CABBE051C256001256D422A
:101B2000D4E7FFF793F8132CAED900F069FC092332
:101B30000360F3E710B5FFF795FF10BDF0B585B072
:101B4000052401AD019002910392201C291CABBE1B
:101B5000041C631C02D0200005B0F0BD00F050FC56
:101B6000132605000027301C391CABBE061C2E6056
:101B7000F1E7C046F0B5160040F20002C2F20002E2
:101B8000050010680C0085B008B1036A23B3132D5B
:101B900026D840F2DC12ED00C2F20002AB585A1C0B
:101BA0001ED0029401AF052401930396201C391C1A
:101BB000ABBE041C631C18D0002C20DB40F2DC13ED
:101BC000C2F200039C4665446A68301B12186A60C2
:101BD000B44217D005B0F0BDFFF738F8132DD8D9AF
:101BE00000F00EFC0923036009E000F009FC132556
:101BF00004000026281C311CABBE051C25600120FA
:101C00004042E7E700F0FCFB132504000026281CF7
:101C1000311CABBE051C00202560DBE7F0B583B0AE
:101C20000224019001AD201C291CABBE041C631CC6
:101C300002D0200003B0F0BD00F0E2FB1326050047
:101C40000027301C391CABBE061C2E60F1E7C046D5
:101C500040F20003F0B5C2F200030400186883B03C
:101C600008B1036A2BB3132C27D840F2DC15E60029
:101C7000C2F20005AB595A1C1FD0013C012C03D8FD
:101C8000A9682A6991420FD00224019301AF201C58
:101C9000391CABBE041C2000631C13D014B90123F3
:101CA0005B42AB5103B0F0BD01235B420020AB515E
:101CB000F8E7FEF7CBFF132CD7D900F0A1FB0923DF
:101CC000036009E000F09CFB132504000026281C9B
:101CD000311CABBE051C256001204042E2E7C04636
:101CE0000120704740F2CC12C2F2000203001068DB
:101CF00010B5C8B16946C3188B420ED840F25C01DA
:101D0000C2F200010C684DF6AD61CCF6FE218C42AA
:101D100001D0A34201D8136010BD00F071FB0C2369
:101D2000036001204042F7E740F28020C2F2000049
:101D30001060DFE740F20003C2F2000370B5040058
:101D400018680D0008B1036A0BB3132C23D840F2B6
:101D5000DC13E400C2F20003E35801331BD042F26B
:101D600000026B680C2613436B6040F20043AB64C7
:101D700040F2DC13C2F200039C466444301C211C78
:101D8000ABBE041C631C0BD000202C6170BDFEF7A1
:101D90005DFF132CDBD900F033FB0923036009E05E
:101DA00000F02EFB132504000026281C311CABBEBE
:101DB000051C256001204042E8E7C04670B50C00D4
:101DC0000500582200212000FEF710FA280021000B
:101DD000FFF7B0FF70BDC04670B50C00050058227B
:101DE00000212000FEF702FA2800002100F014F87C
:101DF0000500431C0DD048F2001263682100134314
:101E00006360FFF797FF04002800FFF721FF200021
:101E100070BD0400FBE7C046F0B54746CE4640F231
:101E2000DC1880B5C2F2000807000D00424600240D
:101E300097B003E001340832142C54D013680133F6
:101E4000F8D140F600231A00E9462A409A423DD0D4
:101E50000223EE03F60F2B4200D01E4340F2016333
:101E60002B4201D004231E4308232B421ED13800ED
:101E7000009700F099FA4B46012598605E60281C97
:101E80004946ABBE051C002D14DB4246E300D5508D
:101E900040F2DC12C2F200029446002263445A600F
:101EA000200017B0C0BCB946B046F0BD042296432E
:101EB0001E43DCE700F0A4FA132604000027301CC0
:101EC000391CABBE061C26602C00E9E749463800E9
:101ED000FFF782FF0130BBD000F092FA11230360BC
:101EE00001246442DCE700F08BFA18230360F7E773
:101EF0000EB400B50199FFF78FFF08BC03B0184777
:101F0000F0B54746CE4680B5070042F6983083B01C
:101F10008846C0F2000000211600FFF77DFF040094
:101F2000320000213800FEF761F9631C60D040F2F6
:101F30000003C2F20003186810B1036A002B5AD0E4
:101F4000132C45D840F2DC12E300C2F200029A588A
:101F500001323DD040F2DC12C2F2000291469944B7
:101F60000C25281C4946ABBE051C6B1C33D0032D29
:101F70003BDD033DB54238DD01AD042229002000E0
:101F8000FFF726FD032830DD2B78532B2DD16B78FE
:101F9000482B2AD1AB78462B27D1EB78422B24D182
:101FA000012241462000FFF75DFD00281DDB3200C5
:101FB00039002000FFF70CFD05002000FFF748FE68
:101FC0006B1C1BD0280003B0C0BCB946B046F0BDA6
:101FD00040F20009C4E700F013FA132605000027B9
:101FE000301C391CABBE061C2E602000FFF730FEF3
:101FF00001256D42E6E7FEF729FEA1E700F000FAB1
:10200000132604000027301C391CABBE061C2660BA
:10201000D8E7C04630B540F25C04C2F20004606804
:1020200083B0002801DB03B030BD0023012501226D
:10203000002101A86360A560FFF762FF002808DDAA
:102040006B4628001A790223104013406060A36099
:10205000E9E76068E7E7C04630B540F25C04C2F2E9
:102060000004A06883B0002801DB03B030BD00236A
:1020700001250122002101A86360A560FFF740FF50
:10208000002807DD6B4602201B791D401840656063
:10209000A060EAE7A068E8E7F0B54E465746DE469E
:1020A0004546E0B542F6B037032385B001AEC0F235
:1020B00000070197B360002301247360201C311CCA
:1020C000ABBE041C40F2CC15C2F200056C6040F2BD
:1020D000DC14C2F20004210001222300A03152428C
:1020E0001A6008338B42FBD140F25C08C2F2000850
:1020F00043469B68002B4DDB33B9AA68013200D1FF
:1021000069E06A680CC43EE040F2030A5346019756
:10211000B360013340F2010973604846311CABBE25
:1021200083465B46EB6053460197B36005337360AB
:102130004846311CABBE061C4346AE609B68013668
:1021400040D06A68226000226260002B13DA4346A6
:1021500001265A600021684601329E60FFF7D0FEDA
:10216000002840DD6B461A78434616405E60022325
:1021700013404246936033B1EB68AA68A360002322
:102180002261E360636105B0F0BCBB46B246A9467C
:10219000A046F0BD0023424640F201095360434689
:1021A0004A46002168469A60FFF7AAFE002817DD1C
:1021B0006B461A784B46414613404B60022313404E
:1021C0008B6099E7EA68AA606A6822600022626010
:1021D000002BBCDBCFE7EA68AA606A680CC4D2E7D0
:1021E00043469B6888E743469B68C4E710B500F008
:1021F00007F9582303600120404210BDF0B583B0B9
:102200006D46009000F0D0F80E246860201C291C58
:10221000ABBE041C631C03D00024200003B0F0BD3F
:1022200000F0EEF8132605000027301C391CABBE69
:10223000061C2E60F1E7C046F0B504000D0048B161
:1022400000271126301C391CABBE061C2660F61771
:102250006660A76015B100232B606B600020F0BDA5
:1022600030B510240025201C291CABBE041C200006
:1022700030BDC04670B5040000261025281C311C56
:10228000ABBE051C1CB125606660A660E660280038
:1022900070BDC04640F20003C2F2000370B50400F6
:1022A000186810B1036A002B23D0132C25D840F2F4
:1022B000DC13E400C2F20003E35801331DD040F206
:1022C000DC13C2F200039C4609256444281C211C2F
:1022D000ABBE041C2000012C0AD000F091F813259D
:1022E00004000026281C311CABBE051C2560002004
:1022F00070BDFEF7ABFC132CD9D900F081F809238F
:102300000360F4E7F0B583B0C0B16D46009000F013
:102310004BF812246860201C291CABBE041C25004D
:10232000631C0DD0FF2C06D82CB16D009DB12B0481
:102330001B0EA342F9D1280003B0F0BD0125FAE736
:1023400000F05EF8132604000027301C391CABBED9
:10235000061C2660EFE70025EDE7C046F0B585B026
:102360000C006D46009000F01FF868602000AC6023
:1023700000F01AF80F24E860201C291CABBE041CD6
:10238000631C05D0631E9C416442200005B0F0BD73
:1023900000F036F8132605000027301C391CABBEB0
:1023A000061C2E60F1E7C04610B583070AD0030073
:1023B000032102E001330B4205D01A78002AF9D13B
:1023C000181A10BD03004FF6FF6248F28004196826
:1023D000CFF6FE628A188A43C8F2800422420BD1EB
:1023E0004FF6FF625968CFF6FE628A188A430433BB
:1023F0002242F5D000E001331A78002AFBD1DFE752
:1024000040F20003C2F2000318687047026800201F
:10241000824205DB096801238A4200DB03001800C1
:10242000012318407047F8B50C0016001F00220069
:10243000E317C117FDF784FE3A00FB1704000D00F7
:102440003000F117FDF77CFE24184D410023E917F9
:102450008AB212196B4111001B04080C1843F8BD15
:102460004CF25033F0B51600026804000D009BB02A
:102470009A4202D900201BB0F0BD2C4B42689A4210
:10248000F8D801003000FFF7C1FF0028F2D0A7689C
:1024900073689F42EED18023B2685B029A42E9D80A
:1024A0002B68072BE6D8AB682022019323000C335E
:1024B00019000AA80093FDF7E9FE0021A368013383
:1024C0000293236803936368049333680593B368A6
:1024D000069312AB02AA5258043110121A705870A7
:1024E000101412169870DA7004331429F2D102AA6B
:1024F00020310AA800F08DF9B36820226B60AB6828
:1025000000980133AB60A36802A90133A360FDF713
:10251000BDFEA2687B1C9A42ACD1019BA868013326
:10252000C01A43425841C0B2A5E7C046801A06000F
:10253000F0B5CDB00D000CAB1C0040350A784E78DC
:10254000120636043243CE7832438E780431360296
:10255000324304C48D42F1D1102511279A6B132602
:102560001100F9418C461100F141664671401E6828
:10257000920AB44651405A6A5C68624407268A1837
:102580002100F1418C4621000B36F1416646E408FA
:1025900071406140521801351A640433402DDDD179
:1025A0000027036802934368029C03938368039E99
:1025B0000493C368059303690693436906990793D7
:1025C00083690893C3690993059B0B93049B9C46FD
:1025D000099B0A93089B0193079B00930B230A0016
:1025E0000625DA410B00EB4153400A001335EA415E
:1025F00053402B4A0CADBA187D5912680437521952
:102600009A18009D019B0D408B436B40D2180A9B8A
:102610002500D3180A930D23DD4102222B0025004B
:10262000D54122005D401623DA416346554062469B
:102630007340324023405340EB180B9A0A9DAD186B
:102640000A9AD318019A0A9262460B9240F200123B
:1026500097421DD1029AD3180360039B009A1C195C
:10266000049B44609E19059B866063449446C36046
:10267000069B019A5D19079B05615918089B4161EA
:10268000634494468361099B6344C3614DB0F0BDCC
:10269000009AB4460091260029001C0001929DE793
:1026A000C0290000002300228366002302624362E7
:1026B000084B0360084B4360084B8360084BC360C2
:1026C000084B0361084B4361084B8361084BC361AE
:1026D0007047C04667E6096A85AE67BB72F36E3C19
:1026E0003AF54FA57F520E518C68059BABD9831FDD
:1026F00019CDE05BF7B504000D0040F2002600277D
:102700008B180193019B9D4200D1F7BDA36E5A1C0B
:10271000A2662978E31828331970402A0CD12100C9
:1027200020002831FFF704FF226A636A92197B4177
:10273000226263620023A3660135E3E7F7B5826E88
:1027400004000191811880202831531C0870372A19
:1027500034D8220000212732382B40D1A36E3825EF
:102760005F0FDE00226A636AB6185F4123002662AB
:102770006762603300932A0030003900FDF7D4FC13
:10278000009B083D1870013300932B000833F2D1F1
:10279000210020002831FFF7CBFE00230022019802
:1027A000D90049421831C518A058C840A85404326D
:1027B000202AF9D10133042BF0D1F7BD22000021EA
:1027C00027323F2B0ED92500283529002000FFF79E
:1027D000AFFE382200212800FDF708FDBEE70133D7
:1027E000D154B9E70133D154EBE770B50E000500C1
:1027F00014009CB06846FFF755FF32002900684678
:10280000FFF778FF21006846FFF798FF1CB070BD06
:10281000704710B5FFF7E9FF10BD000070B592B02A
:10282000FFF73AFCFFF7F4FF2422002109A8FDF787
:10283000DDFC03240223202200210AA80893079428
:10284000FDF7D4FC01230193002348F20006029314
:1028500003934CF20003320044F200013000FFF712
:10286000E2FD0025099B069004AA01A907A804958A
:102870000593FFF7F5FD00B30999039B029A1148F0
:10288000FDF758FD10491148FDF754FD07AB5B19E2
:10289000197B0F480135FDF74DFD202DF6D10D4870
:1028A000FDF748FD013C002CD3D1029A09990A4852
:1028B000FDF740FD200012B070BD09990748FDF7F3
:1028C00039FDEFE7C02A0000E92A0000EF2A0000E6
:1028D000F32A0000212B0000232B0000F82A00001F
:1028E000FEE7000010B50A4A0A4B0B498B4209D398
:1028F00000210A4B0A4A934207D3FDF74FFCFFF72A
:102900008DFFFEE701CA01C3F0E702C3F3E7C0464B
:10291000BC2B0000000000206800002068000020A0
:102920007C020020F8B5C046F8BC08BC9E46704743
:0C293000F8B5C046F8BC08BC9E467047D5
:10293C008815000084140000841400008414000026
:10294C00841400008414000084140000841400001B
:10295C00841400008414000084140000EA140000A5
:10296C0098140000841400008414000084140000E7
:10297C0084140000981400008414000084140000D7
:10298C008414000084140000FA130000C414000026
:10299C001C1500008414000084140000FE140000B8
:1029AC0084140000C414000084140000841400007B
:1029BC009A150000982F8A4291443771CFFBC0B50D
:1029CC00A5DBB5E95BC25639F111F159A4823F92EE
:1029DC00D55E1CAB98AA07D8015B8312BE85312447
:1029EC00C37D0C55745DBE72FEB1DE80A706DC9B08
:1029FC0074F19BC1C1699BE48647BEEFC69DC10FB4
:102A0C00CCA10C246F2CE92DAA84744ADCA9B05CEF
:102A1C00DA88F97652513E986DC631A8C82703B0B2
:102A2C00C77F59BFF30BE0C64791A7D55163CA06C0
:102A3C0067292914850AB72738211B2EFC6D2C4DCC
:102A4C00130D385354730A65BB0A6A762EC9C281BA
:102A5C00852C7292A1E8BFA24B661AA8708B4BC250
:102A6C00A3516CC719E892D1240699D685350EF47A
:102A7C0070A06A1016C1A419086C371E4C77482731
:102A8C00B5BCB034B30C1C394AAAD84E4FCA9C5BA7
:102A9C00F36F2E68EE828F746F63A5781478C884F8
:102AAC000802C78CFAFFBE90EB6C50A4F7A3F9BEDA
:102ABC00F27871C665706F63683D2564206E6F6433
:102ACC00652E73746174653D2564206E6F64652E8C
:102ADC0076657273696F6E3D2564202000686173A2
:102AEC00683D0025732000253032780065706F63D7
:102AFC00683D256420204D55544154494F4E205279
:102B0C00454A454354454420286661696C2D636CE5
:102B1C006F736564290A000A46696E616C3A206518
:102B2C00706F63683D25642020626C656E6465641B
:102B3C002073746174652073686F756C64206265B2
:102B4C00203332373638202D3E2025640A00000011
:102B5C00232D302B20000000686C4C006566674507
:102B6C00464700003031323334353637383941423C
:102B7C00434445460000000030313233343536379B
:102B8C003839616263646566000000003A73656DF4
:102B9C0069686F7374696E672D66656174757265AB
:082BAC00730000003A7474008C
:042BB400010100001B
:042BB800D100000048
:102BBC00040000200000000088000020F00000202D
:102BCC005801002000000000000000000000000080
:102BDC0000000000000000000000000000000000E9
:102BEC0000000000000000000000000000000000D9
:102BFC0000000000000000000000000000000000C9
:102C0C00000000000300000088000020ADDEFECABA
:082C1C00FFFFFFFFFFFFFFFFB8
:04000003000028E5EC
:00000001FF
