:1000000000800120F51E0000F11E0000F11E00001E
:1000100000000000000000000000000000000000E0
:10002000000000000000000000000000F11E0000C1
:100030000000000000000000F11E0000F11E0000A2
:10004000F11E0000F11E0000F11E0000F11E000074
:10005000F11E0000F11E0000F11E0000F11E000064
:10006000F11E0000F11E0000F11E0000F11E000054
:10007000F11E0000F11E0000F11E0000F11E000044
:1000800040F25C0040F25C03C2F20000C2F20003E6
:1000900010B5834205D040F20003C0F2000303B163
:1000A000984710BD40F25C0040F25C03C2F20000D1
:1000B000C2F200031B1A9A10D90F8918491010B503
:1000C00029B140F20003C0F2000303B1984710BD0C
:1000D00010B540F25C04C2F20004237873B9FFF754
:1000E000CFFF40F20003C0F200032BB141F6F870DD
:1000F000C0F2000000E000BF0123237010BDC04625
:1001000040F20003C0F2000310B54BB140F26001B1
:1001100041F6F870C2F20001C0F2000000E000BF3A
:10012000FFF7C0FF10BDC046D0400B00D1409C4639
:10013000203AD340184352426346934018437047D5
:10014000F0B54FF6FF750400CE462C4047461540EB
:100150000E002900994680B5130C0700000C61437E
:100160004543584363430C0C5B19E4188C46A54285
:1001700003D980235B0298464044230C61461B1838
:100180004FF6FF70084049465643794324048919C5
:100190002018C918C0BCB946B046F0BD70B542F2CF
:1001A0006C2342F26C25C0F20003C0F200055E1B16
:1001B000B610AB4205D0002408CD01349847A642C2
:1001C000FAD801F019FF42F26C2542F27023C0F216
:1001D0000005C0F200035E1BB610AB4205D0002440
:1001E00008CD01349847A642FAD870BDF0B5830710
:1001F00047D0541E002A43D003000325CEB201E0AD
:10020000013C3DD301335A1E16702B42F8D1032C0A
:100210002FD9FF220A401502AD182A04AD180F2C61
:1002200032D92700103F3F093E01B4461E001A0094
:1002300010366644156055609560D5601032964260
:10024000F8D101373F010C22DB190F27224027404C
:100250003C0072B13E1FB608B400A4461A001C1D33
:10026000644420C2A242FCD103240136B6009B198B
:100270003C402CB1C9B21C19197001339C42FBD10E
:10028000F0BD03001400C2E72700E3E7F0B5050066
:100290000F2A31D903273E000D430C0003002E40E6
:1002A0002F4233D11500103D2D09AC462F013F18C8
:1002B00065685D60A5689D60E568DD60256810344F
:1002C0001D601D001033BD42F2D165460F230C2482
:1002D00001352D01491913404519144219D0043B29
:1002E0009B0801339B008C59AC5104369E42FAD1D5
:1002F0000323AD1989191A40561E32B10023CC5C74
:100300001A00EC5401339642F9D1F0BD0500561E97
:10031000F4E71A00F0E7C0460EB400B582B003ABB4
:1003200004CB8168019300F04FF802B008BC03B021
:100330001847C0460FB440F2000100B5C2F20001F8
:1003400083B004AB086804CB8168019300F03CF8EB
:1003500003B008BC04B01847936810B5013B936024
:10036000002B04DA9469A34207DB0A2905D013683D
:10037000581C10600800197010BD00F07DF9FBE7F3
:10038000F8B506000F006BB11400D51802E0013477
:10039000AC4207D03A0030002178FFF7DDFF431C64
:1003A000F5D1F8BD0020FCE710B5140092680023D9
:1003B0002AB1220000F0B6F900220300A260002258
:1003C0001800626010BDC046F0B557464E4645461F
:1003D000DE46E0B58146884617001C009DB018B186
:1003E000036A002B00D136E143469B891B0700D4EA
:1003F000A3E043461B69002B00D19EE0002304AD1F
:100400006B6120336B7610333E00AB764346C846B3
:10041000994633780394002B00D18CE0340004E03B
:1004200063780134002B00D191E0252BF8D1A31B78
:100430009B46B44200D08EE02378002B7BD0661C14
:10044000012400236442002204930594002342F215
:10045000302B0692079300234332C0F2000B012495
:100460005F46AB54AB6506E02200C01B82401E0015
:1004700029680A432A6042F2302005223178C0F20E
:10048000000001F05FF9731C0028EDD12A681F00FD
:10049000D10602D5432120306854110702D54321EB
:1004A0002B20685431782A2900D074E0039B191D51
:1004B0001B680391002B00DAA5E0EB6071782E2910
:1004C00000D180E042F23824C0F200040322200070
:1004D00001F038F930B14023001B83402A6801370E
:1004E00013432B6042F23C2039780622C0F2000010
:1004F0007E1C297601F026F9002800D189E040F21F
:100500000003C0F20003002B6ED003AB009340F257
:1005100081334A4629004046C0F2000300E000BF94
:1005200082465346013306D06B6953446B6133787E
:10053000002B00D072E7C84621E04146484600F053
:1005400003FE002800D159E7012040421CE0A31B14
:100550009B46B442EFD04B463200A14646460027A8
:1005600090461C0002E00137BB4544D943462200B7
:100570003000D95DFFF7F0FE0130F4D1A0464346CC
:100580009B895B06E0D468691DB0F0BCBB46B246EF
:10059000A946A046F0BD080030383700092800D928
:1005A0008DE7EA68140000E00133A20012191978FF
:1005B00052001418080030380928F5D91F00EC60E3
:1005C0002E2900D07EE779782A292FD1039BB81CE9
:1005D0001A1D1B6803926B60002B02DA01235B4239
:1005E0006B60B97807006DE70722039B07339343DD
:1005F0000833039398E723004C4699466B69B0464D
:100600005B446B6118E75B42EB6002231A432A608C
:1006100054E703AB009340F281334A462900404639
:10062000C0F2000300F0D0FE82467AE70800002303
:10063000303801376B60092800D943E71A0093006E
:100640009B1879785B001A180800303801370928A0
:10065000F5D96A6036E700F0F9FAC5E6130040F212
:10066000000210B50400C2F2000210680A00210066
:10067000FFF7AAFE10BDC046F8B505000E00140035
:1006800010B1036A002B3ED0A369A360A3891B07A6
:100690001AD52369C3B1FF22F7B2616916402268F7
:1006A000D31A99421EDD0133A1680139A160511CA2
:1006B0002160177062699A421CD0A389DB0701D5BB
:1006C0000A2E17D03000F8BD2100280000F03CFDB4
:1006D000B0B9FF222369F7B2616916402268D31AC4
:1006E0009942E0DC2100280000F072FB40B90123B0
:1006F0002268D9E72100280000F06AFB0028E1D039
:1007000001267642DEE700F0A1FABDE70A0040F2DA
:100710000001030010B5C2F2000108681900FFF7DC
:10072000ABFF10BDF0B54E46DE4657464546E0B538
:10073000936883B00C0091460190002B65D00C2388
:10074000C95E0B0769D52369002B66D04B461F682D
:100750008B0726D5A36A4FF60048002600259A4647
:10076000216AC7F6FF78C5B12B00454503D94FF67E
:100770000043C7F6FF7332000198D04700285ADDC6
:100780004B464A469B6836181B1A2D1A9360E3B3F2
:10079000A36A216A9A46002DE6D13E687D68083733
:1007A000E1E7CB0764D540F2000843460020B84695
:1007B00040F2000A00261F00002E44D000284BD033
:1007C0003B00B3469E4200D99B4620682269A5683B
:1007D0006369904203D9ED18AB4500DDFEE05B454F
:1007E00000DDEEE0A56A5246216A0198A847051E81
:1007F00021DD7F1B0120C7B14B464A469B68AA44B6
:100800005B1B761B9360002BD6D1002003B0F0BC9D
:10081000BB46B246A946A046F0BD2100019800F0B3
:1008200093FC68B90C23E15E90E72100019800F089
:10083000CFFA0028E0D00C22A35E40221343A3810C
:1008400001204042E2E7434640F2080C5E68E04483
:10085000002EF8D01B689A4632000A21504600F05C
:1008600071FF002800D1DCE053460130C71AA7E72A
:1008700040F2000A40F20008504640F2002B454684
:100880002368A268009018009046002D5CD05E4658
:100890000E425ED09246AA4200D98FE040F28042DA
:1008A0000A4230D0626920691E1A53009B18DA0F81
:1008B000D3185B109A46731C5B195246534501D9F5
:1008C0009A461A00490500D497E01100019800F0FB
:1008D000E3FA80460300002800D1A5E03200216938
:1008E000FFF7D4FCA389534A134080221343A3810A
:1008F0003000434652464044AA46A8462361931B13
:1009000020606261A3605246009900F0A5FB434657
:10091000A8460025A268D21A2368A2605344236027
:10092000009B4246434400934B469B689B1A4A46B1
:100930009360002B00D168E70C23E15EA268236876
:1009400090461800002DA2D138687D6800900837C5
:1009500099E72169994218D36169A94215D8802283
:100960002B001206954200D3334B93FBF1F3A26A9E
:100970004B439046216A009A0198C047002800DC4A
:1009800059E780464346ED1ACAE79046AA4200D985
:10099000A84642461800009900F05EFB4346A26854
:1009A000D21A2368A26043442360002AEAD12100BE
:1009B000019800F00DFA0028E4D03CE7A846AA46CA
:1009C000A1E75A46514600F047FB5A46A3685D46E8
:1009D0009B1AA36023685B4423600AE751462A0000
:1009E00000F03AFB236821005B190198236000F0B6
:1009F000EFF9002800D1FCE61DE70100019800F0A6
:100A000005FC8046002800D072E7019D216928007E
:100A100000F0C8FA8022A3899343743A1BB22A607B
:100A20000BE7731C1F00CCE6019A0C3313600C22F9
:100A3000A35E02E77FFBFFFFFFFFFF7F0020704701
:100A400040F2500240F6D15140F2040010B5C2F21B
:100A50000002C0F20001C2F2000000F053FB10BD22
:100A600040F27C034168C2F2000310B504009942D1
:100A700001D000F0ADF9A168064B994202D02000E8
:100A800000F0A6F9E168044B994202D0200000F082
:100A90009FF910BDE40000204C01002000207047A9
:100AA000F8B540F27C0440F2780340F64122CE468D
:100AB0004746C2F20004C2F20003C0F20002200066
:100AC00041F60909002580B51A600423C0F2000927
:100AD0000822002141F635085C3025606560A5607C
:100AE000656625616561A561E360FFF77FFB4B46A5
:100AF000C0F2000863624346A362CC23E550C33BC7
:100B0000C0F2010341F6750741F6A50620006367B0
:100B10008023C0F20007C0F2000608220021C43082
:100B2000E550E7622663A566E5662567A567E56784
:100B30002462FFF75BFB220088236832E2504A46BA
:100B40000433E25042460433E250DC220433E750DF
:100B50000433E6503833E5500433E5500433E550B0
:100B60005C33E550233BFF3BC0F20203A35020005F
:100B7000E0232D30E5500433E55000210433D43A0E
:100B8000FF30E550FFF732FB2200F023D032E25075
:100B90004A460433E25042460433E2500433E750FD
:100BA0000433E650C0BCB946B046F8BDF8B540F2D3
:100BB0007803C2F200031B680700002B3DD040F20F
:100BC0005006C2F200067368B468013B03D51BE00F
:100BD0006834013B18D30C22A55E002DF8D120000B
:100BE000194B08220021E36065662560A5606560F9
:100BF00025616561A5615C30FFF7F8FA6563A5635F
:100C0000A564E5642000F8BD35680DB12E00DAE773
:100C100040F2AC11380000F03FF9040080B1042329
:100C20000560250043600C3040F2A0120021A06056
:100C3000FFF7DCFA34602E00C5E7FFF731FFBEE7AF
:100C40000C2330603B60DDE70100FFFF036A10B555
:100C500003B110BD40F66123C0F20003036240F20D
:100C60007803C2F200031B68002BF2D1FFF718FFD4
:100C7000EFE7C0467047C0467047C04640F250029A
:100C800040F63D2110B50020C2F20002C0F2000182
:100C900000F038FA10BDC04640F2500240F69D21E7
:100CA00010B50020C2F20002C0F2000100F02AFAE2
:100CB00010BDC046F0B5C64600B50C228B5E0700DD
:100CC0000C001A0739D44A68002A59DDE66A86B34F
:100CD00000223D68216A3A60DA0455D400220123DB
:100CE0003800B0470200431C65D00C21635EE66A01
:100CF000216A5B0705D56368D21A636B0BB1236C5D
:100D0000D21A00233800B047431C3FD00023636051
:100D100023692360A389DB044BD4616B3D6041B13F
:100D200023004433994202D0380000F03BF90023FD
:100D30006363002080BCB846F0BD0E69002EF8D079
:100D40000D680022AD1B0E609B0700D14A69A260AE
:100D5000002D04DCEDE736182D1A002DE9DDA36A1D
:100D60003200984638002B00216AC0470028F2DC88
:100D70004022A38913431BB20120A3814042D9E73B
:100D80000A6C002AA2DCD4E7626DB2E739680C2253
:100D9000A35E1D2918D80122C2F24002CA40D20720
:100DA00012D50022626022692260DB04B5D50029D9
:100DB000B3D16065B1E73B68002B96D01D2B01D005
:100DC000162BD5D13D60B4E740221343D4E7C0468B
:100DD0000B6970B505000C002BB108B1036A4BB16B
:100DE0000C22A35E0BB9002070BD21002800FFF784
:100DF00061FFF9E7FFF72AFFF2E7C04670B504008C
:100E0000B8B140F20003C2F200031D6803692BB1C0
:100E10000DB12B6A4BB10C22A35E0BB9002070BD43
:100E200021002800FFF746FFF9E72800FFF70EFF33
:100E3000F1E740F2500240F6D15140F20400C2F214
:100E40000002C0F20001C2F2000000F05BF9E6E728
:100E500070B540F2B414C2F20004236805000E001D
:100E6000ABB13100280000F0BBFC431C0CD00323C5
:100E7000C41C9C43A04205D0211A280000F0B0FCFD
:100E8000013001D0200070BD01246442FAE7002146
:100E900000F0A6FC2060E4E7F8B50323CE46474601
:100EA000CD1C9D430835060080B50C2D1FD20C25A6
:100EB000A9421ED840F2B4173000C2F2000700F079
:100EC000B7FB7A68CAB1140003E063682200A3B1DB
:100ED0001C0023685B1BF8D40B2B27D961192560F4
:100EE000944259D051600B6063684B600DE0002D57
:100EF000DEDA0C230020336014E029003000FFF715
:100F0000A7FF0400431C19D00560300000F092FBDD
:100F1000200007220B30231D9043C21A984201D0B3
:100F20001B1AA350C0BCB946B046F8BD63689442D2
:100F300002D05360E9E743467B60E6E77B6898466A
:100F40001BB3444663689846002BFAD123680021FE
:100F500099463000A14400F043FC814515D1236837
:100F60003000ED1A2900FFF773FF01300DD0236820
:100F70007A685B192360536813B9DCE71A005B6871
:100F80009C42FBD100235360BFE70C233000336049
:100F900000F050FB0020C5E779600B6063684B6090
:100FA000B3E7C04670B50500B9B10C1F2368002B2C
:100FB00025DB280000F03CFB40F2B812C2F2000230
:100FC00013682BB1A3420BD92168601883422CD03F
:100FD00028006360146000F02DFB70BDA34210D8A0
:100FE0001A005B68002BF9D1106811188C4218D0D8
:100FF0002CD363605460280000F01CFBEDE7E4187C
:10100000D7E711685018A04214D01FD82168601883
:101010008342EED118685B684118216063605460B8
:10102000E9E723681B181360E5E718685B68411857
:101030002160CDE720680918501811608342DAD189
:1010400018685B68411811605360D4E70C232800CE
:101050002B6000F0EFFAC0E7F0B5884209D98B1891
:10106000984206D2531E1AB1CA5CC254013BFBD24D
:10107000F0BD05000F2A0AD8561E002AF8D000231A
:10108000CC5C1A00EC5401339642F9D1F0E7032707
:101090003E000D430C0003002E402F422DD11500C1
:1010A000103D2D09AC462F013F1825681D6065686D
:1010B0005D60A5689D60E5681034DD601D0010333B
:1010C000BD42F2D165460F230C2401352D0149198B
:1010D00013404519144213D0043B9B0801339B0075
:1010E0008C59AC5104369E42FAD103231A40AD19F3
:1010F0008919561E002AC2D1BAE70500561EBEE75E
:101100001A00B9E7F8B54746CE46884680B581460D
:10111000170000267D68BC68013D0DD4A389012B12
:1011200007D90E22A35E013303D021004846C047F1
:1011300006436834013DF1D23F68002FEAD1300008
:10114000C0BCB946B046F8BD40F20003C2F200038D
:1011500070B5050018680C0010B1026A002A4CD066
:101160000C22A35E1A071BD522691AB3D90707D52B
:101170000021A160616900204942A16142B170BDB6
:101180000021980700D461690020A160002AF6D1EF
:101190001A06F4D540221343A38101204042EEE712
:1011A000DA062DD55A0714D4226908210B43A381EE
:1011B000002ADBD140F2802140F200201940814218
:1011C000D4D02100280000F037FA0C22A35E226957
:1011D000CCE7616B51B122004432914204D0280027
:1011E000FFF7E0FE0C22A35E0022626324229343F9
:1011F0000022626022692260D7E7FFF727FDAFE790
:1012000009222A6040221343A381C6E7F0B5C646EF
:1012100007000E00140000B561B33AB300F048FBBC
:101220008046844203D835004308A34210D32100EE
:101230003800FFF731FE050050B1220044450BD8BD
:1012400031002800FFF722F831003800FFF7AAFE2E
:10125000280080BCB846F0BD310042462800FFF7A8
:1012600015F831003800FFF79DFEF1E7FFF79AFE11
:101270000025EDE71100FFF70FFE0500E8E7C04687
:10128000F8B557464E464546DE46E0B51F000A9B78
:10129000924698460A698B6806000C009A4200DA6A
:1012A0001A0053461A604323E35C13B151460132DE
:1012B0000A602268910661D55346524606201B6893
:1012C0000233136022681100104208D140F2190B5A
:1012D000E16840F20009A344994247DC110043232E
:1012E000E35C5A1E934189060AD53020E118433148
:1012F000087045215A1C615CA218433202331170F8
:101300002200390030004332C04701301DD053461F
:1013100006251B68E1689C462368A26820692B406B
:10132000042B31D0824239DD40F20009121A914477
:1013300000251A3402E001354D452FDA0123220041
:1013400039003000C0470130F5D101204042F0BCE7
:10135000BB46B246A946A046F8BD534640F2010C32
:10136000E5681B68E144ED1A4D4524DD01235A462A
:1013700039003000C0470130EFD1E6E706211142C5
:101380000ED05A1E9341BBE76346C91ACB43DB1705
:101390000B4099468242C9DC0029C9DC0020D6E70F
:1013A000534640F2190B1B68E16840F20009A34460
:1013B0009942DBDC92E743232168E35C5A1E9341A8
:1013C000890692D49CE7C046F0B5DE464E464546B7
:1013D000574683460800E0B50C00097E85B0994663
:1013E00090460E9B4330A1B10A00583AD2B2202A4F
:1013F00048D88E4D9200AA5897461A682168161D43
:1014000065691E6013680F0602D4490600D5E2E044
:101410001D600023070023614B46210000935846BE
:10142000434603AAFFF72CFF01301ED03A00414685
:1014300058462369C847013017D02368E068039EE7
:101440009B071BD5B04219DD40F2190A0025A244C2
:1014500004E0E0680135831BAB420FDD01235246F7
:1014600041465846C8470130F3D10120404205B0FB
:10147000F0BCBB46B246A946A046F0BDB042F6DA83
:101480003000F4E72700422301204237E154432390
:1014900000222061E254BFE7196822680D1D1D601B
:1014A000160602D4560600D59BE009680D00636855
:1014B000002900DA99E042F2442140F20A0CC0F21D
:1014C000000150E01A68266820CA370602D4760662
:1014D00000D582E01A606F2900D198E042F24421E1
:1014E00040F20A0CC0F2000139E01A682700111D11
:1014F00019604223126801204237E254C7E71A6894
:10150000111D1960176800213800626800F01AF98F
:10151000002800D187E0C01B6060B8E72022216866
:101520000A43226045217825655442F25821C0F2D1
:1015300000011E6820CE170604D4570602D54FF6C8
:10154000FF773D401E60D30702D520231A43226057
:101550001DB9202223689343236040F2100C4323DB
:101560000022E2546368A360002B18DB0426226883
:10157000B24322609DB90700002B4FD16346082B70
:101580001ED0C01B206147E745225821A15442F2DA
:1015900044212268C0F20001CBE72268C2E763461B
:1015A0000700B5FBF3F21E005643AE1B8E5D013FF4
:1015B0003E702E0015009E42F3D26346082BE0D108
:1015C0002368DB07DDD5626823699A42D9DC3022C3
:1015D000013F3A70D5E71D801BE74FF6FF76354097
:1015E00078E70023CD5E290061E743212D2666546C
:1015F000A360002B02DB04239A43226042F24421C1
:101600000A2340F20A0C6D42C0F20001C8E742F220
:10161000442140F2080CC0F20001A0E727000B783B
:1016200042373B70AAE7606831E7C04610200000EF
:101630007047C0467047C04670B50C23CD5E0600AB
:101640000C0096B0AA0707D5230047332360236117
:101650000123636116B070BD0E23C95E00292BDB28
:101660006A4600F059F9002824DB40F200413000BE
:10167000019DFFF711FC98B38022A38920601343DA
:10168000A38140F2004342F2000263614FF2000383
:1016900020612B409342DDD130000E23E15E00F04B
:1016A0008BF80028D6D00322A38993430122134349
:1016B000A381CFE70C23E55E40F2004C0D4B2D06D5
:1016C000ED171D40654429003000FFF7E5FB38B1F8
:1016D0008022A38920601343A38120616561B9E75B
:1016E0000C22A35E9A05B5D403229343022213432E
:1016F000A381A9E740FCFFFF70B50C001E000E237C
:10170000C95E150096B0002914DB6A4600F004F9A2
:1017100000280FDB4FF2000301991940084B9C464B
:1017200061444B42594140F20043002031602B603C
:1017300016B070BDA38900211B06F4D54023F4E741
:1017400000E0FFFF70B5CCB283070CD0531E72B11E
:10175000032504E00130284206D0013B07D302787C
:10176000A242F7D170BD1300032B02D8D3B90020D9
:10177000F8E7FF2248F280060A401502AD182A0455
:10178000AD18C8F2800603E0043B0430032BEDD90A
:101790004FF6FF610268CFF6FE616A40511891432F
:1017A0003142F1D0C31802E001309842DFD0027814
:1017B000A242F9D1D6E7C04670B540F2BC1400236E
:1017C0000500C2F200040800236000F0F9F8431C91
:1017D00000D070BD2368002BFBD02B60F9E7C0461A
:1017E00070B540F2BC1400230500C2F200040800EA
:1017F000236000F001F9431C00D070BD2368002B6A
:10180000FBD02B60F9E7C04670B50C000E25495F90
:1018100000F06CF8002803DB636D1B18636570BD76
:10182000A389024A1340A381F9E7C046FFEFFFFFF7
:1018300000207047F8B50C001F000C23C95E05009E
:101840001600CB050AD40A4B320019402800A181AA
:101850000E23E15E3B0000F089F8F8BD0E23E15E47
:101860000022022300F06CF80C23E15EEBE7C04697
:10187000FFEFFFFF70B50C000E25495F00F060F828
:10188000431C07D041F20002A389606513431BB2D9
:10189000A38170BDA389024A13401BB2F8E7C0467A
:1018A000FFEFFFFF10B50E23C95E00F00BF810BD6F
:1018B0000B1F1B68181F002B00DB70470B58C0184C
:1018C000FBE7C04670B540F2BC1400230500C2F22D
:1018D00000040800236000F05FF8431C00D070BDD6
:1018E0002368002BFBD02B60F9E7C04670B540F2AF
:1018F000BC140500080011001A000023C2F2000405
:10190000236000F06FF8431C00D070BD2368002BEB
:10191000FBD02B60F9E7C04670B540F2BC14002341
:101920000500C2F2000408001100236000F03EF838
:10193000431C00D070BD2368002BFBD02B60F9E75F
:1019400070B540F2BC140500080011001A00002315
:10195000C2F20004236000F03BF8431C00D070BDCD
:101960002368002BFBD02B60F9E7C04670B540F22E
:10197000BC140500080011001A000023C2F2000484
:10198000236000F011FB431C00D070BD2368002BC6
:10199000FBD02B60F9E7C04640F2BC13582201206F
:1019A000C2F2000340421A607047C04640F2BC13C6
:1019B00058220120C2F2000340421A607047C0461C
:1019C00040F2BC135822C2F2000300201A60704794
:1019D00040F2BC1358220120C2F2000340421A60B8
:1019E0007047C04640F2BC1358220120C2F20003E7
:1019F00040421A607047C04640F2C012C2F2000274
:101A00000300106810B1C3181360704740F2C8108B
:101A1000C2F20000F7E7C04602680020824205DB00
:101A2000096801238A4200DB0300180001231840E3
:101A30007047F8B50C0016001F002200E317C1170D
:101A4000FEF77EFB3A00FB1704000D003000F11793
:101A5000FEF776FB24184D410023E9178AB21219CC
:101A60006B4111001B04080C1843F8BD4CF25033B5
:101A7000F0B51600026804000D009BB09A4202D92E
:101A800000201BB0F0BD2C4B42689A42F8D80100F0
:101A90003000FFF7C1FF0028F2D0A76873689F42AB
:101AA000EED18023B2685B029A42E9D82B68072BFB
:101AB000E6D8AB682022019323000C3319000AA852
:101AC0000093FEF7E3FB0021A36801330293236830
:101AD00003936368049333680593B368069312AB6A
:101AE00002AA5258043110121A70587010141216AB
:101AF0009870DA7004331429F2D102AA20310AA8AE
:101B000000F08DF9B36820226B60AB680098013358
:101B1000AB60A36802A90133A360FEF7B7FBA2681C
:101B20007B1C9A42ACD1019BA8680133C01A434286
:101B30005841C0B2A5E7C046801A0600F0B5CDB046
:101B40000D000CAB1C0040350A784E7812063604A6
:101B50003243CE7832438E7804313602324304C4A5
:101B60008D42F1D1102511279A6B13261100F941EE
:101B70008C461100F141664671401E68920AB446D7
:101B800051405A6A5C68624407268A182100F14174
:101B90008C4621000B36F1416646E40871406140F5
:101BA000521801351A640433402DDDD10027036833
:101BB00002934368029C03938368039E0493C36863
:101BC000059303690693436906990793836908930C
:101BD000C3690993059B0B93049B9C46099B0A933D
:101BE000089B0193079B00930B230A000625DA410B
:101BF0000B00EB4153400A001335EA4153402B4A96
:101C00000CADBA187D591268043752199A18009D04
:101C1000019B0D408B436B40D2180A9B2500D318C3
:101C20000A930D23DD4102222B002500D54122001D
:101C30005D401623DA4163465540624673403240A8
:101C400023405340EB180B9A0A9DAD180A9AD318FB
:101C5000019A0A9262460B9240F2001297421DD1FD
:101C6000029AD3180360039B009A1C19049B4460DA
:101C70009E19059B866063449446C360069B019A47
:101C80005D19079B05615918089B4161634494469F
:101C90008361099B6344C3614DB0F0BD009AB446B3
:101CA0000091260029001C0001929DE7942000006D
:101CB000002300228366002302624362084B036014
:101CC000084B4360084B8360084BC360084B0361BB
:101CD000084B4361084B8361084BC3617047C046A2
:101CE00067E6096A85AE67BB72F36E3C3AF54FA5AD
:101CF0007F520E518C68059BABD9831F19CDE05BD9
:101D0000F7B504000D0040F2002600278B18019360
:101D1000019B9D4200D1F7BDA36E5A1CA266297893
:101D2000E31828331970402A0CD1210020002831F3
:101D3000FFF704FF226A636A92197B4122626362A1
:101D40000023A3660135E3E7F7B5826E0400019135
:101D5000811880202831531C0870372A34D822007B
:101D600000212732382B40D1A36E38255F0FDE00CB
:101D7000226A636AB6185F41230026626762603395
:101D800000932A0030003900FEF7CEF9009B083D91
:101D90001870013300932B000833F2D1210020008A
:101DA0002831FFF7CBFE002300220198D9004942D9
:101DB0001831C518A058C840A8540432202AF9D1B7
:101DC0000133042BF0D1F7BD2200002127323F2B35
:101DD0000ED92500283529002000FFF7AFFE382254
:101DE00000212800FEF702FABEE70133D154B9E71B
:101DF0000133D154EBE770B50E00050014009CB020
:101E00006846FFF755FF320029006846FFF778FF64
:101E100021006846FFF798FF1CB070BD704710B5F1
:101E2000FFF7E9FF10BD000070B592B000F082F836
:101E3000FFF7F4FF2422002109A8FEF7D7F90324B5
:101E40000223202200210AA808930794FEF7CEF966
:101E500001230193002348F20006029303934CF2FE
:101E60000003320044F200013000FFF7E2FD0025DC
:101E7000099B069004AA01A907A804950593FFF7FA
:101E8000F5FD10B30999039B029A1248FEF752FA26
:101E900011491248FEF74EFA07AB5B19197B10483F
:101EA0000135FEF747FA202DF6D10E48FEF742FA2B
:101EB000013C002CD3D1029A09990B48FEF73AFA5B
:101EC00000F090F8200012B070BD09990748FEF7A5
:101ED00031FAEDE794210000BD210000C32100008C
:101EE000C7210000F5210000F7210000CC210000EF
:101EF000FEE7000010B50A4A0A4B0B498B4209D392
:101F000000210A4B0A4A934207D3FEF747F9FFF72D
:101F10008BFFFEE701CA01C3F0E702C3F3E7C04647
:101F200074220000000000205C0000205C00002003
:101F3000C40100205922134B1A60433A1A607232CE
:101F40001A60C023104A9B0411680B43136080235E
:101F50000E4A5B0211680B430D4913600A680D4B72
:101F60001A40CC23DB0313430B6006230A4A116893
:101F70000B4313600322094B1A60094B094A1A608C
:101F80007047C046000100401C02004008040040A9
:101F900038000040FFFF00FF080007401000074026
:101FA0002400074066000030F0B5802400231000B4
:101FB0000A4D0B4A2404834200DBF0BDCF5C0A2F9C
:101FC00004D117682742FCD10D262E60CF5C16681D
:101FD0002642FCD12F600133EDE7C04600000740E8
:101FE00018000740802303495B050A681A42FCD0A9
:101FF0007047C04618000740F8B5C046F8BC08BC9A
:102000009E467047F8B5C046F8BC08BC9E4670476F
:10201000881500008414000084140000841400005B
:102020008414000084140000841400008414000050
:10203000841400008414000084140000EA140000DA
:10204000981400008414000084140000841400001C
:10205000841400009814000084140000841400000C
:102060008414000084140000FA130000C41400005B
:102070001C1500008414000084140000FE140000ED
:1020800084140000C41400008414000084140000B0
:102090009A150000982F8A4291443771CFFBC0B542
:1020A000A5DBB5E95BC25639F111F159A4823F9223
:1020B000D55E1CAB98AA07D8015B8312BE8531247C
:1020C000C37D0C55745DBE72FEB1DE80A706DC9B3D
:1020D00074F19BC1C1699BE48647BEEFC69DC10FE9
:1020E000CCA10C246F2CE92DAA84744ADCA9B05C25
:1020F000DA88F97652513E986DC631A8C82703B0E8
:10210000C77F59BFF30BE0C64791A7D55163CA06F5
:1021100067292914850AB72738211B2EFC6D2C4D01
:10212000130D385354730A65BB0A6A762EC9C281EF
:10213000852C7292A1E8BFA24B661AA8708B4BC285
:10214000A3516CC719E892D1240699D685350EF4AF
:1021500070A06A1016C1A419086C371E4C77482766
:10216000B5BCB034B30C1C394AAAD84E4FCA9C5BDC
:10217000F36F2E68EE828F746F63A5781478C8842D
:102180000802C78CFAFFBE90EB6C50A4F7A3F9BE0F
:10219000F27871C665706F63683D2564206E6F6468
:1021A000652E73746174653D2564206E6F64652EC1
:1021B00076657273696F6E3D2564202000686173D7
:1021C000683D0025732000253032780065706F630C
:1021D000683D256420204D55544154494F4E2052AE
:1021E000454A454354454420286661696C2D636C1B
:1021F0006F736564290A000A46696E616C3A20654E
:10220000706F63683D25642020626C656E64656450
:102210002073746174652073686F756C64206265E7
:10222000203332373638202D3E2025640A00000046
:10223000232D302B20000000686C4C00656667453C
:102240004647000030313233343536373839414271
:1022500043444546000000003031323334353637D0
:0C226000383961626364656600000000AC
:04226C00010100006C
:04227000D100000099
:1022740004000020000000007C000020E400002096
:102284004C010020000000000000000000000000DD
:10229400000000000000000000000000000000003A
:1022A400000000000000000000000000000000002A
:1022B400000000000000000000000000000000001A
:0C22C40000000000030000007C0000206F
:0400000300001EF5E6
:00000001FF
